201809040010000200000000000000005365000000000000000053658000000000030618855631PAUNY S.A                     000000014713600000000000000000000000000000000000000000000000000000000000000000000000000000000000000000000000000000000000PES00010000001 00000000000000020181004
201809040010000200000000000000005366000000000000000053668000000000030618855631PAUNY S.A                     000000012230680000000000000000000000000000000000000000000000000000000000000000000000000000000000000000000000000000000000PES00010000001 00000000000000020181004
201809040010000200000000000000005367000000000000000053678000000000030618855631PAUNY S.A                     000000007402780000000000000000000000000000000000000000000000000000000000000000000000000000000000000000000000000000000000PES00010000001 00000000000000020181004
201809040010000200000000000000005368000000000000000053688000000000030618855631PAUNY S.A                     000000010851280000000000000000000000000000000000000000000000000000000000000000000000000000000000000000000000000000000000PES00010000001 00000000000000020181004
201809040010000200000000000000005369000000000000000053698000000000030618855631PAUNY S.A                     000000015633200000000000000000000000000000000000000000000000000000000000000000000000000000000000000000000000000000000000PES00010000001 00000000000000020181004
201809040010000200000000000000005370000000000000000053708000000000030503858327AGCO ARGENTINA S.A.    (PROV:1000000000177030000000000000000000000000000000000000000000000000000000000000000000000007025000000000000000000000000000000PES00010000001 00000000000000020180924
201809040010000200000000000000005371000000000000000053718000000000030503858327AGCO ARGENTINA S.A.    (PROV:1000000000177030000000000000000000000000000000000000000000000000000000000000000000000007025000000000000000000000000000000PES00010000001 00000000000000020180924
201809040010000200000000000000005372000000000000000053728000000000030503858327AGCO ARGENTINA S.A.    (PROV:1000000001512000000000000000000000000000000000000000000000000000000000000000000000000060000000000000000000000000000000000PES00010000001 00000000000000020180924
201809050010000200000000000000005373000000000000000053738000000000030710862938DIRADAIR S.R.L.               000000002262579000000000000000000000000000000000000000000000000000000000000000000000000000000000000000000000000000000000PES00010000001 00000000000000020180905
201809050010000200000000000000005374000000000000000053748000000000030715113348RADIADORES FABIAN de Jorge Bou000000003226102000000000000000000000000000000000000000000000000000000000000000000000000000000000000000000000000000000000PES00010000001 00000000000000020180920
201809050010000200000000000000005375000000000000000053758000000000030611578640BOLSAFLEX SA                  000000006213350000000000000000000000000000000000000000000000000000000000000000000000000000000000000000000000000000000000PES00010000001 00000000000000020180905
201809060010000200000000000000005376000000000000000053768000000000030710503679ROSENARG SRL                  000000018603270000000000000000000000000000000000000000000000000000000000000000000000738225000000000000000000000000000000PES00010000001 00000000000000020180916
201809060010000200000000000000005377000000000000000053778000000000030710503679ROSENARG SRL                  000000018603270000000000000000000000000000000000000000000000000000000000000000000000738225000000000000000000000000000000PES00010000001 00000000000000020180916
201809060010000200000000000000005378000000000000000053788000000000030714459089PRESOLEO S.A.                 000000002253275000000000000000000000000000000000000000000000000000000000000000000000072105000000000000000000000000000000PES00010000001 00000000000000020180906
201809060010000200000000000000005379000000000000000053798000000000030504260964GAMOPA S.A.                   000000000155001000000000000000000000000000000000000000000000000000000000000000000000000000000000000000000000000000000000PES00010000001 00000000000000020181006
201809100010000200000000000000005380000000000000000053808000000000030709928305AIR MAN S.R.L.                000000003478132000000000000000000000000000000000000000000000000000000000000000000000097779000000000000000000000000000000PES00010000001 00000000000000020180910
201809100010000200000000000000005381000000000000000053818000000000030616085464GALILEO TECHNOLOGIES S.A.     000000006079920000000000000000000000000000000000000000000000000000000000000000000000074448000000000000000000000000000000PES00010000001 00000000000000020181209
201809100010000200000000000000005382000000000000000053828000000000030616085464GALILEO TECHNOLOGIES S.A.     000000003890549000000000000000000000000000000000000000000000000000000000000000000000047639000000000000000000000000000000PES00010000001 00000000000000020181209
201809100010000200000000000000005383000000000000000053838000000000030616085464GALILEO TECHNOLOGIES S.A.     000000043066100000000000000000000000000000000000000000000000000000000000000000000000527340000000000000000000000000000000PES00010000001 00000000000000020181209
201809100010000200000000000000005384000000000000000053848000000000030570276502ASTILLERO TECNAO SRL          000000009880791000000000000000000000000000000000000000000000000000000000000000000000008159000000000000000000000000000000PES00010000001 00000000000000020180910
201809100010000200000000000000005385000000000000000053858000000000033712453589SNIC SERVICIOS Y PROYECTOS S.A000000002782710000000000000000000000000000000000000000000000000000000000000000000000000000000000000000000000000000000000PES00010000001 00000000000000020180910
201809110010000200000000000000005386000000000000000053868000000000030618855631PAUNY S.A                     000000019452535000000000000000000000000000000000000000000000000000000000000000000000000000000000000000000000000000000000PES00010000001 00000000000000020181011
201809110010000200000000000000005387000000000000000053878000000000030711504547ARGENCHINA TRADE S.R.L.       000000002239952000000000000000000000000000000000000000000000000000000000000000000000000000000000000000000000000000000000PES00010000001 00000000000000020180918
201809120010000200000000000000005388000000000000000053888000000000020046984685BOTTA CARLOS ATILIO           000000000478800000000000000000000000000000000000000000000000000000000000000000000000019000000000000000000000000000000000PES00010000001 00000000000000020180912
201809120010000200000000000000005389000000000000000053898000000000030616085464GALILEO TECHNOLOGIES S.A.     000000021223125000000000000000000000000000000000000000000000000000000000000000000000259875000000000000000000000000000000PES00010000001 00000000000000020181211
201809130010000200000000000000005390000000000000000053908000000000030707651675CAIMAN S.R.L.                 000000037126478000000000000000000000000000000000000000000000000000000000000000000000000000000000000000000000000000000000PES00010000001 00000000000000020181013
201809130010000200000000000000005391000000000000000053918000000000030504260964GAMOPA S.A.                   000000003004672000000000000000000000000000000000000000000000000000000000000000000000000000000000000000000000000000000000PES00010000001 00000000000000020181013
201809130010000200000000000000005392000000000000000053928000000000030616085464GALILEO TECHNOLOGIES S.A.     000000044440550000000000000000000000000000000000000000000000000000000000000000000000544170000000000000000000000000000000PES00010000001 00000000000000020181212
201809050030000200000000000000000327000000000000000003278000000000030629609209SCHEIMBERG VIDRIOS SA         000000000907500000000000000000000000000000000000000000000000000000000000000000000000000000000000000000000000000000000000PES00010000001 00000000000000020180905
201809050030000200000000000000000328000000000000000003288000000000030503858327AGCO ARGENTINA S.A.    (PROV:1000000000026000000000000026000000000000000000000000000000000000000000000000000000000000000000000000000000000000000000000PES00010000001N00000000000000020180925
201809060030000200000000000000000329000000000000000003298000000000030710503679ROSENARG SRL                  000000038170440000000000000000000000000000000000000000000000000000000000000000000001514700000000000000000000000000000000PES00010000001 00000000000000020180916
201809060030000200000000000000000330000000000000000003308000000000033712539289F.I.R. S.A.                   000000003015078000000000000000000000000000000000000000000000000000000000000000000000000000000000000000000000000000000000PES00010000001 00000000000000020181006
201809060030000200000000000000000331000000000000000003318000000000030710503679ROSENARG SRL                  000000018603270000000000000000000000000000000000000000000000000000000000000000000000738225000000000000000000000000000000PES00010000001 00000000000000020180916
2018091800100001000000000000000002880000000000000000028880SULLAIR ARGENTINA S.A.        000000000605000000000000000000000000000000000000000000000000000000000000000000000000000000000000000000000000000000000000PES00010000001 00000000000000020180918
